{
  "contractName": "PoolbaseEventEmitter",
  "abi": [
    {
      "anonymous": false,
      "inputs": [
        {
          "indexed": false,
          "name": "contractAddress",
          "type": "address"
        },
        {
          "indexed": false,
          "name": "investor",
          "type": "address"
        },
        {
          "indexed": false,
          "name": "pool",
          "type": "address"
        },
        {
          "indexed": false,
          "name": "contribution",
          "type": "uint256"
        }
      ],
      "name": "ContributionMade",
      "type": "event"
    },
    {
      "anonymous": false,
      "inputs": [
        {
          "indexed": false,
          "name": "contractAddress",
          "type": "address"
        }
      ],
      "name": "Closed",
      "type": "event"
    },
    {
      "anonymous": false,
      "inputs": [
        {
          "indexed": false,
          "name": "contractAddress",
          "type": "address"
        }
      ],
      "name": "RefundsEnabled",
      "type": "event"
    },
    {
      "anonymous": false,
      "inputs": [
        {
          "indexed": false,
          "name": "contractAddress",
          "type": "address"
        }
      ],
      "name": "TokenPayoutsEnabled",
      "type": "event"
    },
    {
      "anonymous": false,
      "inputs": [
        {
          "indexed": false,
          "name": "contractAddress",
          "type": "address"
        }
      ],
      "name": "Pause",
      "type": "event"
    },
    {
      "anonymous": false,
      "inputs": [
        {
          "indexed": false,
          "name": "contractAddress",
          "type": "address"
        }
      ],
      "name": "Unpause",
      "type": "event"
    },
    {
      "anonymous": false,
      "inputs": [
        {
          "indexed": false,
          "name": "contractAddress",
          "type": "address"
        },
        {
          "indexed": true,
          "name": "beneficiary",
          "type": "address"
        },
        {
          "indexed": false,
          "name": "weiAmount",
          "type": "uint256"
        }
      ],
      "name": "Refunded",
      "type": "event"
    },
    {
      "anonymous": false,
      "inputs": [
        {
          "indexed": false,
          "name": "contractAddress",
          "type": "address"
        },
        {
          "indexed": true,
          "name": "beneficiary",
          "type": "address"
        },
        {
          "indexed": false,
          "name": "amount",
          "type": "uint256"
        },
        {
          "indexed": false,
          "name": "token",
          "type": "address"
        }
      ],
      "name": "TokenClaimed",
      "type": "event"
    },
    {
      "constant": false,
      "inputs": [
        {
          "name": "contractAddress",
          "type": "address"
        },
        {
          "name": "_investor",
          "type": "address"
        },
        {
          "name": "_pool",
          "type": "address"
        },
        {
          "name": "_contribution",
          "type": "uint256"
        }
      ],
      "name": "logContributionEvent",
      "outputs": [],
      "payable": false,
      "stateMutability": "nonpayable",
      "type": "function"
    },
    {
      "constant": false,
      "inputs": [
        {
          "name": "contractAddress",
          "type": "address"
        }
      ],
      "name": "logClosedEvent",
      "outputs": [],
      "payable": false,
      "stateMutability": "nonpayable",
      "type": "function"
    },
    {
      "constant": false,
      "inputs": [
        {
          "name": "contractAddress",
          "type": "address"
        }
      ],
      "name": "logRefundsEnabledEvent",
      "outputs": [],
      "payable": false,
      "stateMutability": "nonpayable",
      "type": "function"
    },
    {
      "constant": false,
      "inputs": [
        {
          "name": "contractAddress",
          "type": "address"
        }
      ],
      "name": "logTokenPayoutEnabledEvent",
      "outputs": [],
      "payable": false,
      "stateMutability": "nonpayable",
      "type": "function"
    },
    {
      "constant": false,
      "inputs": [
        {
          "name": "contractAddress",
          "type": "address"
        }
      ],
      "name": "logPausedEvent",
      "outputs": [],
      "payable": false,
      "stateMutability": "nonpayable",
      "type": "function"
    },
    {
      "constant": false,
      "inputs": [
        {
          "name": "contractAddress",
          "type": "address"
        }
      ],
      "name": "logUnpausedEvent",
      "outputs": [],
      "payable": false,
      "stateMutability": "nonpayable",
      "type": "function"
    },
    {
      "constant": false,
      "inputs": [
        {
          "name": "contractAddress",
          "type": "address"
        },
        {
          "name": "_beneficiary",
          "type": "address"
        },
        {
          "name": "_weiAmount",
          "type": "uint256"
        }
      ],
      "name": "logRefundedEvent",
      "outputs": [],
      "payable": false,
      "stateMutability": "nonpayable",
      "type": "function"
    },
    {
      "constant": false,
      "inputs": [
        {
          "name": "contractAddress",
          "type": "address"
        },
        {
          "name": "_beneficiary",
          "type": "address"
        },
        {
          "name": "_amount",
          "type": "uint256"
        },
        {
          "name": "_token",
          "type": "address"
        }
      ],
      "name": "logTokenClaimedEvent",
      "outputs": [],
      "payable": false,
      "stateMutability": "nonpayable",
      "type": "function"
    }
  ],
  "bytecode": "0x608060405234801561001057600080fd5b506107af806100206000396000f30060806040526004361061008e576000357c0100000000000000000000000000000000000000000000000000000000900463ffffffff1680631351193c14610093578063186a3630146101005780632cb209e4146101435780635e50921614610186578063645ff1a2146101c9578063df974adb1461020c578063e51d42bc1461024f578063f80e9499146102dc575b600080fd5b34801561009f57600080fd5b506100fe600480360381019080803573ffffffffffffffffffffffffffffffffffffffff169060200190929190803573ffffffffffffffffffffffffffffffffffffffff16906020019092919080359060200190929190505050610369565b005b34801561010c57600080fd5b50610141600480360381019080803573ffffffffffffffffffffffffffffffffffffffff1690602001909291905050506103f0565b005b34801561014f57600080fd5b50610184600480360381019080803573ffffffffffffffffffffffffffffffffffffffff169060200190929190505050610456565b005b34801561019257600080fd5b506101c7600480360381019080803573ffffffffffffffffffffffffffffffffffffffff1690602001909291905050506104bc565b005b3480156101d557600080fd5b5061020a600480360381019080803573ffffffffffffffffffffffffffffffffffffffff169060200190929190505050610522565b005b34801561021857600080fd5b5061024d600480360381019080803573ffffffffffffffffffffffffffffffffffffffff169060200190929190505050610588565b005b34801561025b57600080fd5b506102da600480360381019080803573ffffffffffffffffffffffffffffffffffffffff169060200190929190803573ffffffffffffffffffffffffffffffffffffffff169060200190929190803573ffffffffffffffffffffffffffffffffffffffff169060200190929190803590602001909291905050506105ee565b005b3480156102e857600080fd5b50610367600480360381019080803573ffffffffffffffffffffffffffffffffffffffff169060200190929190803573ffffffffffffffffffffffffffffffffffffffff16906020019092919080359060200190929190803573ffffffffffffffffffffffffffffffffffffffff1690602001909291905050506106c7565b005b8173ffffffffffffffffffffffffffffffffffffffff167fec1e5ed733e00f1a00915d56caef57b4f52312dde4f9b3165f213319a0da156b8483604051808373ffffffffffffffffffffffffffffffffffffffff1673ffffffffffffffffffffffffffffffffffffffff1681526020018281526020019250505060405180910390a2505050565b7fdfe9f2e2d9a591e6f645aef6d055f259f1f68cff03c5021bbc474eee389fcca181604051808273ffffffffffffffffffffffffffffffffffffffff1673ffffffffffffffffffffffffffffffffffffffff16815260200191505060405180910390a150565b7f5ee71a369c8672edded508e624ffc9257fa1ae6886ef32905c18e60196bca39981604051808273ffffffffffffffffffffffffffffffffffffffff1673ffffffffffffffffffffffffffffffffffffffff16815260200191505060405180910390a150565b7faeb196d352664784d1900b0e7414a8face7d29f4dae8c4b0cf68ed477423bbf481604051808273ffffffffffffffffffffffffffffffffffffffff1673ffffffffffffffffffffffffffffffffffffffff16815260200191505060405180910390a150565b7f0f7f9bda8bc73ce06eaa008e828d868554dd62e4bd49b925ec8868d000b6b91881604051808273ffffffffffffffffffffffffffffffffffffffff1673ffffffffffffffffffffffffffffffffffffffff16815260200191505060405180910390a150565b7f13607bf9d2dd20e1f3a7daf47ab12856f8aad65e6ae7e2c75ace3d0c424a40e881604051808273ffffffffffffffffffffffffffffffffffffffff1673ffffffffffffffffffffffffffffffffffffffff16815260200191505060405180910390a150565b7f94aa79aa2731abb0df5a52833cf6a3b9483c391e93f57a7ec69f2ad1b2fc022d84848484604051808573ffffffffffffffffffffffffffffffffffffffff1673ffffffffffffffffffffffffffffffffffffffff1681526020018473ffffffffffffffffffffffffffffffffffffffff1673ffffffffffffffffffffffffffffffffffffffff1681526020018373ffffffffffffffffffffffffffffffffffffffff1673ffffffffffffffffffffffffffffffffffffffff16815260200182815260200194505050505060405180910390a150505050565b8273ffffffffffffffffffffffffffffffffffffffff167f9d9a7a38de1c8ece611109a57130146e6ccfa4e941942ec4b85ab727446ae0f3858484604051808473ffffffffffffffffffffffffffffffffffffffff1673ffffffffffffffffffffffffffffffffffffffff1681526020018381526020018273ffffffffffffffffffffffffffffffffffffffff1673ffffffffffffffffffffffffffffffffffffffff168152602001935050505060405180910390a2505050505600a165627a7a72305820c12eaa02e024040034868a69f69bab5c974ae7b14e3807b18f249caa474677cc0029",
  "source": "pragma solidity 0.4.23;\n\n\ncontract PoolbaseEventEmitter {\n    event ContributionMade(address contractAddress, address investor, address pool, uint256 contribution);\n    event Closed(address contractAddress);\n    event RefundsEnabled(address contractAddress);\n    event TokenPayoutsEnabled(address contractAddress);\n    event Pause(address contractAddress);\n    event Unpause(address contractAddress);\n    event Refunded(address contractAddress, address indexed beneficiary, uint256 weiAmount);\n    event TokenClaimed(address contractAddress, address indexed beneficiary, uint256 amount, address token);\n\n    function logContributionEvent\n    (\n        address contractAddress,\n        address _investor,\n        address _pool,\n        uint256 _contribution\n    )\n        public\n    {\n        emit ContributionMade(contractAddress, _investor, _pool, _contribution);\n    }\n\n    function logClosedEvent(address contractAddress) public {\n        emit Closed(contractAddress);\n    }\n\n    function logRefundsEnabledEvent(address contractAddress) public {\n        emit RefundsEnabled(contractAddress);\n    }\n\n    function logTokenPayoutEnabledEvent(address contractAddress) public {\n        emit TokenPayoutsEnabled(contractAddress);\n    }\n\n    function logPausedEvent(address contractAddress) public {\n        emit Pause(contractAddress);\n    }\n\n    function logUnpausedEvent(address contractAddress) public {\n        emit Unpause(contractAddress);\n    }\n\n    function logRefundedEvent(address contractAddress, address _beneficiary, uint256 _weiAmount) public {\n        emit Refunded(contractAddress, _beneficiary, _weiAmount);\n    }\n\n    function logTokenClaimedEvent(address contractAddress, address _beneficiary, uint256 _amount, address _token) public {\n        emit TokenClaimed(contractAddress, _beneficiary, _amount, _token);\n    }\n}\n",
  "sourcePath": "/Users/michaelteixeira/Documents/Development/Poolbase/poolbase-smart-contract/contracts/PoolbaseEventEmitter.sol",
  "compiler": {
    "name": "solc",
    "version": "0.4.23+commit.124ca40d.Emscripten.clang"
  },
  "schemaVersion": "2.0.0",
  "updatedAt": "2018-07-08T02:16:19.646Z"
}