{
  "contractName": "PoolbaseFactory",
  "abi": [
    {
      "constant": true,
      "inputs": [
        {
          "name": "",
          "type": "address"
        }
      ],
      "name": "isInstantiation",
      "outputs": [
        {
          "name": "",
          "type": "bool"
        }
      ],
      "payable": false,
      "stateMutability": "view",
      "type": "function"
    },
    {
      "constant": true,
      "inputs": [
        {
          "name": "",
          "type": "address"
        },
        {
          "name": "",
          "type": "uint256"
        }
      ],
      "name": "instantiations",
      "outputs": [
        {
          "name": "",
          "type": "address"
        }
      ],
      "payable": false,
      "stateMutability": "view",
      "type": "function"
    },
    {
      "constant": true,
      "inputs": [
        {
          "name": "creator",
          "type": "address"
        }
      ],
      "name": "getInstantiationCount",
      "outputs": [
        {
          "name": "",
          "type": "uint256"
        }
      ],
      "payable": false,
      "stateMutability": "view",
      "type": "function"
    },
    {
      "anonymous": false,
      "inputs": [
        {
          "indexed": false,
          "name": "sender",
          "type": "address"
        },
        {
          "indexed": false,
          "name": "instantiation",
          "type": "address"
        }
      ],
      "name": "ContractInstantiation",
      "type": "event"
    },
    {
      "constant": false,
      "inputs": [
        {
          "name": "_superBouncers",
          "type": "address[]"
        },
        {
          "name": "_maxAllocation",
          "type": "uint256"
        },
        {
          "name": "_adminPoolFee",
          "type": "uint256[2]"
        },
        {
          "name": "_poolbaseFee",
          "type": "uint256[2]"
        },
        {
          "name": "_isAdminFeeInWei",
          "type": "bool"
        },
        {
          "name": "_payoutWallet",
          "type": "address"
        },
        {
          "name": "_adminPayoutWallet",
          "type": "address"
        },
        {
          "name": "_poolbasePayoutWallet",
          "type": "address"
        },
        {
          "name": "_eventEmitterContract",
          "type": "address"
        },
        {
          "name": "_admins",
          "type": "address[]"
        }
      ],
      "name": "create",
      "outputs": [
        {
          "name": "pool",
          "type": "address"
        }
      ],
      "payable": false,
      "stateMutability": "nonpayable",
      "type": "function"
    }
  ],
  "bytecode": "0x608060405234801561001057600080fd5b506146a2806100206000396000f300608060405260043610610062576000357c0100000000000000000000000000000000000000000000000000000000900463ffffffff1680632f4f33161461006757806357183c82146100c25780636acf4c211461014f5780638f8384781461032c575b600080fd5b34801561007357600080fd5b506100a8600480360381019080803573ffffffffffffffffffffffffffffffffffffffff169060200190929190505050610383565b604051808215151515815260200191505060405180910390f35b3480156100ce57600080fd5b5061010d600480360381019080803573ffffffffffffffffffffffffffffffffffffffff169060200190929190803590602001909291905050506103a3565b604051808273ffffffffffffffffffffffffffffffffffffffff1673ffffffffffffffffffffffffffffffffffffffff16815260200191505060405180910390f35b34801561015b57600080fd5b506102ea600480360381019080803590602001908201803590602001908080602002602001604051908101604052809392919081815260200183836020028082843782019150505050505091929192908035906020019092919080604001906002806020026040519081016040528092919082600260200280828437820191505050505091929192908060400190600280602002604051908101604052809291908260026020028082843782019150505050509192919290803515159060200190929190803573ffffffffffffffffffffffffffffffffffffffff169060200190929190803573ffffffffffffffffffffffffffffffffffffffff169060200190929190803573ffffffffffffffffffffffffffffffffffffffff169060200190929190803573ffffffffffffffffffffffffffffffffffffffff169060200190929190803590602001908201803590602001908080602002602001604051908101604052809392919081815260200183836020028082843782019150505050505091929192905050506103f0565b604051808273ffffffffffffffffffffffffffffffffffffffff1673ffffffffffffffffffffffffffffffffffffffff16815260200191505060405180910390f35b34801561033857600080fd5b5061036d600480360381019080803573ffffffffffffffffffffffffffffffffffffffff169060200190929190505050610609565b6040518082815260200191505060405180910390f35b60006020528060005260406000206000915054906101000a900460ff1681565b6001602052816000526040600020818154811015156103be57fe5b906000526020600020016000915091509054906101000a900473ffffffffffffffffffffffffffffffffffffffff1681565b60008a8a8a8a8a8a8a8a8a8a6104046107e9565b80806020018b81526020018a600260200280838360005b8381101561043657808201518184015260208101905061041b565b5050505090500189600260200280838360005b83811015610464578082015181840152602081019050610449565b50505050905001881515151581526020018773ffffffffffffffffffffffffffffffffffffffff1673ffffffffffffffffffffffffffffffffffffffff1681526020018673ffffffffffffffffffffffffffffffffffffffff1673ffffffffffffffffffffffffffffffffffffffff1681526020018573ffffffffffffffffffffffffffffffffffffffff1673ffffffffffffffffffffffffffffffffffffffff1681526020018473ffffffffffffffffffffffffffffffffffffffff1673ffffffffffffffffffffffffffffffffffffffff1681526020018060200183810383528d818151815260200191508051906020019060200280838360005b8381101561057c578082015181840152602081019050610561565b50505050905001838103825284818151815260200191508051906020019060200280838360005b838110156105be5780820151818401526020810190506105a3565b505050509050019c50505050505050505050505050604051809103906000f0801580156105ef573d6000803e3d6000fd5b5090506105fb81610655565b9a9950505050505050505050565b6000600160008373ffffffffffffffffffffffffffffffffffffffff1673ffffffffffffffffffffffffffffffffffffffff168152602001908152602001600020805490509050919050565b60016000808373ffffffffffffffffffffffffffffffffffffffff1673ffffffffffffffffffffffffffffffffffffffff16815260200190815260200160002060006101000a81548160ff021916908315150217905550600160003373ffffffffffffffffffffffffffffffffffffffff1673ffffffffffffffffffffffffffffffffffffffff1681526020019081526020016000208190806001815401808255809150509060018203906000526020600020016000909192909190916101000a81548173ffffffffffffffffffffffffffffffffffffffff021916908373ffffffffffffffffffffffffffffffffffffffff160217905550507f4fb057ad4a26ed17a57957fa69c306f11987596069b89521c511fc9a894e61613382604051808373ffffffffffffffffffffffffffffffffffffffff1673ffffffffffffffffffffffffffffffffffffffff1681526020018273ffffffffffffffffffffffffffffffffffffffff1673ffffffffffffffffffffffffffffffffffffffff1681526020019250505060405180910390a150565b604051613e7d806107fa83390190560060806040523480156200001157600080fd5b5060405162003e7d38038062003e7d833981018060405281019080805182019291906020018051906020019092919091908260400191908260400180519060200190929190805190602001909291908051906020019092919080519060200190929190805190602001909291908051820192919050505060008a60008090505b81518160ff161015620001175762000109828260ff16815181101515620000b457fe5b906020019060200201516040805190810160405280600781526020017f626f756e6365720000000000000000000000000000000000000000000000000081525062000327640100000000026401000000009004565b808060010191505062000091565b50508960018190555088600390600262000133929190620004eb565b5087600590600262000147929190620004eb565b5086600760006101000a81548160ff02191690831515021790555085600760016101000a81548173ffffffffffffffffffffffffffffffffffffffff021916908373ffffffffffffffffffffffffffffffffffffffff16021790555084600860006101000a81548173ffffffffffffffffffffffffffffffffffffffff021916908373ffffffffffffffffffffffffffffffffffffffff16021790555083600960006101000a81548173ffffffffffffffffffffffffffffffffffffffff021916908373ffffffffffffffffffffffffffffffffffffffff16021790555082601060006101000a81548173ffffffffffffffffffffffffffffffffffffffff021916908373ffffffffffffffffffffffffffffffffffffffff160217905550600090505b81518160ff161015620002f157620002e3828260ff168151811015156200028e57fe5b906020019060200201516040805190810160405280600581526020017f61646d696e00000000000000000000000000000000000000000000000000000081525062000327640100000000026401000000009004565b80806001019150506200026b565b6000600a60146101000a81548160ff021916908360038111156200031157fe5b0217905550505050505050505050505062000558565b620003b6826000836040518082805190602001908083835b6020831015156200036657805182526020820191506020810190506020830392506200033f565b6001836020036101000a03801982511681845116808217855250505050505090500191505090815260200160405180910390206200048d640100000000026200372e179091906401000000009004565b7fbfec83d64eaa953f2708271a023ab9ee82057f8f3578d548c1a4ba0b5b7004898282604051808373ffffffffffffffffffffffffffffffffffffffff1673ffffffffffffffffffffffffffffffffffffffff16815260200180602001828103825283818151815260200191508051906020019080838360005b838110156200044d57808201518184015260208101905062000430565b50505050905090810190601f1680156200047b5780820380516001836020036101000a031916815260200191505b50935050505060405180910390a15050565b60018260000160008373ffffffffffffffffffffffffffffffffffffffff1673ffffffffffffffffffffffffffffffffffffffff16815260200190815260200160002060006101000a81548160ff0219169083151502179055505050565b82600281019282156200051d579160200282015b828111156200051c578251825591602001919060010190620004ff565b5b5090506200052c919062000530565b5090565b6200055591905b808211156200055157600081600090555060010162000537565b5090565b90565b61391580620005686000396000f300608060405260043610610230576000357c0100000000000000000000000000000000000000000000000000000000900463ffffffff16806301e1c1231461024d57806304f7ddc0146102ba57806305578b65146102e557806307db249f146102fc5780630988ca8c1461033f578063101aa312146103c85780631479290e1461041f5780631b5e890614610462578063217fe6c6146104b95780633f4ba83a1461055a5780633fbb0564146105715780634983e567146105b457806353f4db01146105be578063550b536b146105e957806358efa66f146106145780635c975abb146106615780635eb7d946146106905780635f81690d146106cb5780636f9d980f146106e2578063743fd5f31461070f578063759cbee51461073e5780637a7e19fd1461076d5780637d3fd1881461079c5780638456cb59146107d75780638488bb4e146107ee578063888764c8146108455780638c52dc41146108885780638da4f2b71461089f5780638f51b0f8146108b657806398b1e06a146108e35780639b3ba79f146109115780639e5257c11461093c5780639ff78c301461097d578063b32c4d8d146109d4578063bd6ad3c714610a1c578063c19d93fb14610a5d578063c401d66c14610a96578063c614b0be14610aad578063cb13cddb14610b04578063cf554e9214610b5b578063d391014b14610b88578063d466ab6b14610c18578063e68f302f14610ca8578063fc0c546a14610cd7578063fc33326b14610d2e578063fdaa9aec14610d38575b600960169054906101000a900460ff16151561024b57600080fd5b005b34801561025957600080fd5b506102b8600480360381019080803573ffffffffffffffffffffffffffffffffffffffff169060200190929190803573ffffffffffffffffffffffffffffffffffffffff16906020019092919080359060200190929190505050610d7b565b005b3480156102c657600080fd5b506102cf610ee0565b6040518082815260200191505060405180910390f35b3480156102f157600080fd5b506102fa610ee6565b005b34801561030857600080fd5b5061033d600480360381019080803573ffffffffffffffffffffffffffffffffffffffff169060200190929190505050610f44565b005b34801561034b57600080fd5b506103c6600480360381019080803573ffffffffffffffffffffffffffffffffffffffff169060200190929190803590602001908201803590602001908080601f016020809104026020016040519081016040528093929190818152602001838380828437820191505050505050919291929050505061100b565b005b3480156103d457600080fd5b50610409600480360381019080803573ffffffffffffffffffffffffffffffffffffffff16906020019092919050505061108c565b6040518082815260200191505060405180910390f35b34801561042b57600080fd5b50610460600480360381019080803573ffffffffffffffffffffffffffffffffffffffff1690602001909291905050506110a4565b005b34801561046e57600080fd5b50610477611163565b604051808273ffffffffffffffffffffffffffffffffffffffff1673ffffffffffffffffffffffffffffffffffffffff16815260200191505060405180910390f35b3480156104c557600080fd5b50610540600480360381019080803573ffffffffffffffffffffffffffffffffffffffff169060200190929190803590602001908201803590602001908080601f0160208091040260200160405190810160405280939291908181526020018383808284378201915050505050509192919290505050611189565b604051808215151515815260200191505060405180910390f35b34801561056657600080fd5b5061056f611210565b005b34801561057d57600080fd5b506105b2600480360381019080803573ffffffffffffffffffffffffffffffffffffffff16906020019092919050505061135e565b005b6105bc61185e565b005b3480156105ca57600080fd5b506105d36118bc565b6040518082815260200191505060405180910390f35b3480156105f557600080fd5b506105fe6118c2565b6040518082815260200191505060405180910390f35b34801561062057600080fd5b5061065f600480360381019080803573ffffffffffffffffffffffffffffffffffffffff169060200190929190803590602001909291905050506118c8565b005b34801561066d57600080fd5b50610676611994565b604051808215151515815260200191505060405180910390f35b34801561069c57600080fd5b506106c96004803603810190808035906020019082018035906020019190919293919293905050506119a7565b005b3480156106d757600080fd5b506106e0611c56565b005b3480156106ee57600080fd5b5061070d60048036038101908080359060200190929190505050611cb4565b005b34801561071b57600080fd5b50610724611d2b565b604051808215151515815260200191505060405180910390f35b34801561074a57600080fd5b50610753611d3e565b604051808215151515815260200191505060405180910390f35b34801561077957600080fd5b50610782611d51565b604051808215151515815260200191505060405180910390f35b3480156107a857600080fd5b506107d5600480360381019080803590602001908201803590602001919091929391929390505050611d64565b005b3480156107e357600080fd5b506107ec61226a565b005b3480156107fa57600080fd5b506108036123b9565b604051808273ffffffffffffffffffffffffffffffffffffffff1673ffffffffffffffffffffffffffffffffffffffff16815260200191505060405180910390f35b34801561085157600080fd5b50610886600480360381019080803573ffffffffffffffffffffffffffffffffffffffff1690602001909291905050506123df565b005b34801561089457600080fd5b5061089d61249e565b005b3480156108ab57600080fd5b506108b461262a565b005b3480156108c257600080fd5b506108e160048036038101908080604001909192919290505050612691565b005b61090f600480360381019080803590602001908201803590602001919091929391929390505050612786565b005b34801561091d57600080fd5b5061092661292e565b6040518082815260200191505060405180910390f35b34801561094857600080fd5b5061096760048036038101908080359060200190929190505050612934565b6040518082815260200191505060405180910390f35b34801561098957600080fd5b5061099261294e565b604051808273ffffffffffffffffffffffffffffffffffffffff1673ffffffffffffffffffffffffffffffffffffffff16815260200191505060405180910390f35b3480156109e057600080fd5b506109ff60048036038101908080359060200190929190505050612974565b604051808381526020018281526020019250505060405180910390f35b348015610a2857600080fd5b50610a4760048036038101908080359060200190929190505050612998565b6040518082815260200191505060405180910390f35b348015610a6957600080fd5b50610a726129b2565b60405180826003811115610a8257fe5b60ff16815260200191505060405180910390f35b348015610aa257600080fd5b50610aab6129c5565b005b348015610ab957600080fd5b50610ac2612a60565b604051808273ffffffffffffffffffffffffffffffffffffffff1673ffffffffffffffffffffffffffffffffffffffff16815260200191505060405180910390f35b348015610b1057600080fd5b50610b45600480360381019080803573ffffffffffffffffffffffffffffffffffffffff169060200190929190505050612a86565b6040518082815260200191505060405180910390f35b348015610b6757600080fd5b50610b8660048036038101908080604001909192919290505050612a9e565b005b348015610b9457600080fd5b50610b9d612b93565b6040518080602001828103825283818151815260200191508051906020019080838360005b83811015610bdd578082015181840152602081019050610bc2565b50505050905090810190601f168015610c0a5780820380516001836020036101000a031916815260200191505b509250505060405180910390f35b348015610c2457600080fd5b50610c2d612bcc565b6040518080602001828103825283818151815260200191508051906020019080838360005b83811015610c6d578082015181840152602081019050610c52565b50505050905090810190601f168015610c9a5780820380516001836020036101000a031916815260200191505b509250505060405180910390f35b348015610cb457600080fd5b50610cbd612c05565b604051808215151515815260200191505060405180910390f35b348015610ce357600080fd5b50610cec612c18565b604051808273ffffffffffffffffffffffffffffffffffffffff1673ffffffffffffffffffffffffffffffffffffffff16815260200191505060405180910390f35b610d36612c3e565b005b348015610d4457600080fd5b50610d79600480360381019080803573ffffffffffffffffffffffffffffffffffffffff169060200190929190505050612c9c565b005b6040805190810160405280600581526020017f61646d696e000000000000000000000000000000000000000000000000000000815250610dbb338261100b565b60008214158015610dd85750600960149054906101000a900460ff165b8015610df05750600960159054906101000a900460ff165b1515610dfb57600080fd5b8373ffffffffffffffffffffffffffffffffffffffff1663a9059cbb84846040518363ffffffff167c0100000000000000000000000000000000000000000000000000000000028152600401808373ffffffffffffffffffffffffffffffffffffffff1673ffffffffffffffffffffffffffffffffffffffff16815260200182815260200192505050602060405180830381600087803b158015610e9e57600080fd5b505af1158015610eb2573d6000803e3d6000fd5b505050506040513d6020811015610ec857600080fd5b81019080805190602001909291905050505050505050565b600c5481565b6040805190810160405280600581526020017f61646d696e000000000000000000000000000000000000000000000000000000815250610f26338261100b565b6001600960156101000a81548160ff02191690831515021790555050565b6040805190810160405280600581526020017f61646d696e000000000000000000000000000000000000000000000000000000815250610f84338261100b565b600960179054906101000a900460ff16151515610fa057600080fd5b60008273ffffffffffffffffffffffffffffffffffffffff1614151515610fc657600080fd5b81600860006101000a81548173ffffffffffffffffffffffffffffffffffffffff021916908373ffffffffffffffffffffffffffffffffffffffff1602179055505050565b611088826000836040518082805190602001908083835b6020831015156110475780518252602082019150602081019050602083039250611022565b6001836020036101000a0380198251168184511680821785525050505050509050019150509081526020016040518091039020612d6390919063ffffffff16565b5050565b600e6020528060005260406000206000915090505481565b6040805190810160405280600781526020017f626f756e636572000000000000000000000000000000000000000000000000008152506110e4338261100b565b600073ffffffffffffffffffffffffffffffffffffffff168273ffffffffffffffffffffffffffffffffffffffff161415151561112057600080fd5b61115f826040805190810160405280600781526020017f626f756e63657200000000000000000000000000000000000000000000000000815250612d7c565b5050565b600860009054906101000a900473ffffffffffffffffffffffffffffffffffffffff1681565b6000611208836000846040518082805190602001908083835b6020831015156111c757805182526020820191506020810190506020830392506111a2565b6001836020036101000a0380198251168184511680821785525050505050509050019150509081526020016040518091039020612ecd90919063ffffffff16565b905092915050565b6040805190810160405280600781526020017f626f756e63657200000000000000000000000000000000000000000000000000815250611250338261100b565b600960179054906101000a900460ff16151561126b57600080fd5b6000600960176101000a81548160ff021916908315150217905550601060009054906101000a900473ffffffffffffffffffffffffffffffffffffffff1673ffffffffffffffffffffffffffffffffffffffff16635e509216306040518263ffffffff167c0100000000000000000000000000000000000000000000000000000000028152600401808273ffffffffffffffffffffffffffffffffffffffff1673ffffffffffffffffffffffffffffffffffffffff168152602001915050600060405180830381600087803b15801561134357600080fd5b505af1158015611357573d6000803e3d6000fd5b5050505050565b60008060006040805190810160405280600581526020017f61646d696e0000000000000000000000000000000000000000000000000000008152506113a3338261100b565b600960179054906101000a900460ff161515156113bf57600080fd5b600260038111156113cc57fe5b600a60149054906101000a900460ff1660038111156113e757fe5b148061141757506003808111156113fa57fe5b600a60149054906101000a900460ff16600381111561141557fe5b145b151561142257600080fd5b6003600a60146101000a81548160ff0219169083600381111561144157fe5b021790555084600a60006101000a81548173ffffffffffffffffffffffffffffffffffffffff021916908373ffffffffffffffffffffffffffffffffffffffff1602179055506000600a60009054906101000a900473ffffffffffffffffffffffffffffffffffffffff1673ffffffffffffffffffffffffffffffffffffffff166370a08231306040518263ffffffff167c0100000000000000000000000000000000000000000000000000000000028152600401808273ffffffffffffffffffffffffffffffffffffffff1673ffffffffffffffffffffffffffffffffffffffff168152602001915050602060405180830381600087803b15801561154657600080fd5b505af115801561155a573d6000803e3d6000fd5b505050506040513d602081101561157057600080fd5b81019080805190602001909291905050501415151561158e57600080fd5b6000600b5411156115e757600092505b600b548360ff1610156115e6576115d7600f60008560ff1681526020019081526020016000206001015485612f2690919063ffffffff16565b9350828060010193505061159e565b5b600a60009054906101000a900473ffffffffffffffffffffffffffffffffffffffff1673ffffffffffffffffffffffffffffffffffffffff166370a08231306040518263ffffffff167c0100000000000000000000000000000000000000000000000000000000028152600401808273ffffffffffffffffffffffffffffffffffffffff1673ffffffffffffffffffffffffffffffffffffffff168152602001915050602060405180830381600087803b1580156116a457600080fd5b505af11580156116b8573d6000803e3d6000fd5b505050506040513d60208110156116ce57600080fd5b81019080805190602001909291905050509150611708846116fa600c5485612f2690919063ffffffff16565b612f4290919063ffffffff16565b600f6000600b54815260200190815260200160002060010181905550600254600f6000600b5481526020019081526020016000206001015481151561174957fe5b04600f6000600b54815260200190815260200160002060000181905550601060009054906101000a900473ffffffffffffffffffffffffffffffffffffffff1673ffffffffffffffffffffffffffffffffffffffff1663645ff1a2306040518263ffffffff167c0100000000000000000000000000000000000000000000000000000000028152600401808273ffffffffffffffffffffffffffffffffffffffff1673ffffffffffffffffffffffffffffffffffffffff168152602001915050600060405180830381600087803b15801561182357600080fd5b505af1158015611837573d6000803e3d6000fd5b505050506118516001600b54612f2690919063ffffffff16565b600b819055505050505050565b6040805190810160405280600781526020017f626f756e6365720000000000000000000000000000000000000000000000000081525061189e338261100b565b6001600960166101000a81548160ff02191690831515021790555050565b60025481565b600b5481565b6040805190810160405280600581526020017f61646d696e000000000000000000000000000000000000000000000000000000815250611908338261100b565b600082141580156119255750600960149054906101000a900460ff165b801561193d5750600960159054906101000a900460ff165b151561194857600080fd5b8273ffffffffffffffffffffffffffffffffffffffff166108fc839081150290604051600060405180830381858888f1935050505015801561198e573d6000803e3d6000fd5b50505050565b600960179054906101000a900460ff1681565b600082828080601f0160208091040260200160405190810160405280939291908181526020018383808284378201915050505050506119e63382612f5b565b15156119f157600080fd5b600960179054906101000a900460ff16151515611a0d57600080fd5b60006003811115611a1a57fe5b600a60149054906101000a900460ff166003811115611a3557fe5b1480611a66575060016003811115611a4957fe5b600a60149054906101000a900460ff166003811115611a6457fe5b145b1515611a7157600080fd5b600d60003373ffffffffffffffffffffffffffffffffffffffff1673ffffffffffffffffffffffffffffffffffffffff1681526020019081526020016000205491506000600d60003373ffffffffffffffffffffffffffffffffffffffff1673ffffffffffffffffffffffffffffffffffffffff168152602001908152602001600020819055503373ffffffffffffffffffffffffffffffffffffffff166108fc839081150290604051600060405180830381858888f19350505050158015611b3e573d6000803e3d6000fd5b50601060009054906101000a900473ffffffffffffffffffffffffffffffffffffffff1673ffffffffffffffffffffffffffffffffffffffff16631351193c3033856040518463ffffffff167c0100000000000000000000000000000000000000000000000000000000028152600401808473ffffffffffffffffffffffffffffffffffffffff1673ffffffffffffffffffffffffffffffffffffffff1681526020018373ffffffffffffffffffffffffffffffffffffffff1673ffffffffffffffffffffffffffffffffffffffff1681526020018281526020019350505050600060405180830381600087803b158015611c3857600080fd5b505af1158015611c4c573d6000803e3d6000fd5b5050505050505050565b6040805190810160405280600781526020017f626f756e63657200000000000000000000000000000000000000000000000000815250611c96338261100b565b6001600960146101000a81548160ff02191690831515021790555050565b6040805190810160405280600581526020017f61646d696e000000000000000000000000000000000000000000000000000000815250611cf4338261100b565b600960179054906101000a900460ff16151515611d1057600080fd5b60008214151515611d2057600080fd5b816001819055505050565b600760009054906101000a900460ff1681565b600960159054906101000a900460ff1681565b600960169054906101000a900460ff1681565b60008083838080601f016020809104026020016040519081016040528093929190818152602001838380828437820191505050505050611da43382612f5b565b1515611daf57600080fd5b600960179054906101000a900460ff16151515611dcb57600080fd5b600380811115611dd757fe5b600a60149054906101000a900460ff166003811115611df257fe5b141515611dfe57600080fd5b6000600d60003373ffffffffffffffffffffffffffffffffffffffff1673ffffffffffffffffffffffffffffffffffffffff1681526020019081526020016000205414151515611e4d57600080fd5b6000600b541115611ef757600091505b600b548260ff161015611ef657611ee7611ed8600d60003373ffffffffffffffffffffffffffffffffffffffff1673ffffffffffffffffffffffffffffffffffffffff16815260200190815260200160002054600f60008660ff1681526020019081526020016000206000015461300290919063ffffffff16565b84612f2690919063ffffffff16565b92508180600101925050611e5d565b5b611f49600e60003373ffffffffffffffffffffffffffffffffffffffff1673ffffffffffffffffffffffffffffffffffffffff1681526020019081526020016000205484612f4290919063ffffffff16565b9250611f6083600c54612f2690919063ffffffff16565b600c81905550611fb883600e60003373ffffffffffffffffffffffffffffffffffffffff1673ffffffffffffffffffffffffffffffffffffffff16815260200190815260200160002054612f2690919063ffffffff16565b600e60003373ffffffffffffffffffffffffffffffffffffffff1673ffffffffffffffffffffffffffffffffffffffff16815260200190815260200160002081905550600a60009054906101000a900473ffffffffffffffffffffffffffffffffffffffff1673ffffffffffffffffffffffffffffffffffffffff1663a9059cbb33856040518363ffffffff167c0100000000000000000000000000000000000000000000000000000000028152600401808373ffffffffffffffffffffffffffffffffffffffff1673ffffffffffffffffffffffffffffffffffffffff16815260200182815260200192505050602060405180830381600087803b1580156120c057600080fd5b505af11580156120d4573d6000803e3d6000fd5b505050506040513d60208110156120ea57600080fd5b810190808051906020019092919050505050601060009054906101000a900473ffffffffffffffffffffffffffffffffffffffff1673ffffffffffffffffffffffffffffffffffffffff1663f80e9499303386600a60009054906101000a900473ffffffffffffffffffffffffffffffffffffffff166040518563ffffffff167c0100000000000000000000000000000000000000000000000000000000028152600401808573ffffffffffffffffffffffffffffffffffffffff1673ffffffffffffffffffffffffffffffffffffffff1681526020018473ffffffffffffffffffffffffffffffffffffffff1673ffffffffffffffffffffffffffffffffffffffff1681526020018381526020018273ffffffffffffffffffffffffffffffffffffffff1673ffffffffffffffffffffffffffffffffffffffff168152602001945050505050600060405180830381600087803b15801561224b57600080fd5b505af115801561225f573d6000803e3d6000fd5b505050505050505050565b6040805190810160405280600781526020017f626f756e636572000000000000000000000000000000000000000000000000008152506122aa338261100b565b600960179054906101000a900460ff161515156122c657600080fd5b6001600960176101000a81548160ff021916908315150217905550601060009054906101000a900473ffffffffffffffffffffffffffffffffffffffff1673ffffffffffffffffffffffffffffffffffffffff16632cb209e4306040518263ffffffff167c0100000000000000000000000000000000000000000000000000000000028152600401808273ffffffffffffffffffffffffffffffffffffffff1673ffffffffffffffffffffffffffffffffffffffff168152602001915050600060405180830381600087803b15801561239e57600080fd5b505af11580156123b2573d6000803e3d6000fd5b5050505050565b600760019054906101000a900473ffffffffffffffffffffffffffffffffffffffff1681565b6040805190810160405280600781526020017f626f756e6365720000000000000000000000000000000000000000000000000081525061241f338261100b565b600073ffffffffffffffffffffffffffffffffffffffff168273ffffffffffffffffffffffffffffffffffffffff161415151561245b57600080fd5b61249a826040805190810160405280600781526020017f626f756e6365720000000000000000000000000000000000000000000000000081525061303a565b5050565b6040805190810160405280600581526020017f61646d696e0000000000000000000000000000000000000000000000000000008152506124de338261100b565b600960179054906101000a900460ff161515156124fa57600080fd5b6000600381111561250757fe5b600a60149054906101000a900460ff16600381111561252257fe5b14151561252e57600080fd5b6001600a60146101000a81548160ff0219169083600381111561254d57fe5b0217905550601060009054906101000a900473ffffffffffffffffffffffffffffffffffffffff1673ffffffffffffffffffffffffffffffffffffffff1663186a3630306040518263ffffffff167c0100000000000000000000000000000000000000000000000000000000028152600401808273ffffffffffffffffffffffffffffffffffffffff1673ffffffffffffffffffffffffffffffffffffffff168152602001915050600060405180830381600087803b15801561260f57600080fd5b505af1158015612623573d6000803e3d6000fd5b5050505050565b6040805190810160405280600781526020017f626f756e6365720000000000000000000000000000000000000000000000000081525061266a338261100b565b6001600a60146101000a81548160ff0219169083600381111561268957fe5b021790555050565b6040805190810160405280600581526020017f61646d696e0000000000000000000000000000000000000000000000000000008152506126d1338261100b565b600960179054906101000a900460ff161515156126ed57600080fd5b60008260006002811015156126fe57fe5b6020020135141580156127255750600082600160028110151561271d57fe5b602002013514155b151561273057600080fd5b81600060028110151561273f57fe5b60200201356003600060028110151561275457fe5b018190555081600160028110151561276857fe5b60200201356003600160028110151561277d57fe5b01819055505050565b81818080601f0160208091040260200160405190810160405280939291908181526020018383808284378201915050505050506127c33382612f5b565b15156127ce57600080fd5b600960179054906101000a900460ff161515156127ea57600080fd5b600060038111156127f757fe5b600a60149054906101000a900460ff16600381111561281257fe5b14151561281e57600080fd5b60015461284b343073ffffffffffffffffffffffffffffffffffffffff1631612f2690919063ffffffff16565b1115151561285857600080fd5b6128aa34600d60003373ffffffffffffffffffffffffffffffffffffffff1673ffffffffffffffffffffffffffffffffffffffff16815260200190815260200160002054612f2690919063ffffffff16565b600d60003373ffffffffffffffffffffffffffffffffffffffff1673ffffffffffffffffffffffffffffffffffffffff1681526020019081526020016000208190555060015461291a343073ffffffffffffffffffffffffffffffffffffffff1631612f2690919063ffffffff16565b14156129295761292861318b565b5b505050565b60015481565b60058160028110151561294357fe5b016000915090505481565b601060009054906101000a900473ffffffffffffffffffffffffffffffffffffffff1681565b600f6020528060005260406000206000915090508060000154908060010154905082565b6003816002811015156129a757fe5b016000915090505481565b600a60149054906101000a900460ff1681565b6040805190810160405280600581526020017f61646d696e000000000000000000000000000000000000000000000000000000815250612a05338261100b565b600960179054906101000a900460ff16151515612a2157600080fd5b60006003811115612a2e57fe5b600a60149054906101000a900460ff166003811115612a4957fe5b141515612a5557600080fd5b612a5d61318b565b50565b600960009054906101000a900473ffffffffffffffffffffffffffffffffffffffff1681565b600d6020528060005260406000206000915090505481565b6040805190810160405280600781526020017f626f756e63657200000000000000000000000000000000000000000000000000815250612ade338261100b565b600960179054906101000a900460ff16151515612afa57600080fd5b6000826000600281101515612b0b57fe5b602002013514158015612b3257506000826001600281101515612b2a57fe5b602002013514155b1515612b3d57600080fd5b816000600281101515612b4c57fe5b602002013560056000600281101515612b6157fe5b0181905550816001600281101515612b7557fe5b602002013560056001600281101515612b8a57fe5b01819055505050565b6040805190810160405280600581526020017f61646d696e00000000000000000000000000000000000000000000000000000081525081565b6040805190810160405280600781526020017f626f756e6365720000000000000000000000000000000000000000000000000081525081565b600960149054906101000a900460ff1681565b600a60009054906101000a900473ffffffffffffffffffffffffffffffffffffffff1681565b600760019054906101000a900473ffffffffffffffffffffffffffffffffffffffff1673ffffffffffffffffffffffffffffffffffffffff163373ffffffffffffffffffffffffffffffffffffffff16141515612c9a57600080fd5b565b6040805190810160405280600781526020017f626f756e63657200000000000000000000000000000000000000000000000000815250612cdc338261100b565b600960179054906101000a900460ff16151515612cf857600080fd5b60008273ffffffffffffffffffffffffffffffffffffffff1614151515612d1e57600080fd5b81600960006101000a81548173ffffffffffffffffffffffffffffffffffffffff021916908373ffffffffffffffffffffffffffffffffffffffff1602179055505050565b612d6d8282612ecd565b1515612d7857600080fd5b5050565b612df9826000836040518082805190602001908083835b602083101515612db85780518252602082019150602081019050602083039250612d93565b6001836020036101000a038019825116818451168082178552505050505050905001915050908152602001604051809103902061366090919063ffffffff16565b7fd211483f91fc6eff862467f8de606587a30c8fc9981056f051b897a418df803a8282604051808373ffffffffffffffffffffffffffffffffffffffff1673ffffffffffffffffffffffffffffffffffffffff16815260200180602001828103825283818151815260200191508051906020019080838360005b83811015612e8e578082015181840152602081019050612e73565b50505050905090810190601f168015612ebb5780820380516001836020036101000a031916815260200191505b50935050505060405180910390a15050565b60008260000160008373ffffffffffffffffffffffffffffffffffffffff1673ffffffffffffffffffffffffffffffffffffffff16815260200190815260200160002060009054906101000a900460ff16905092915050565b60008183019050828110151515612f3957fe5b80905092915050565b6000828211151515612f5057fe5b818303905092915050565b6000612ffa3084604051808373ffffffffffffffffffffffffffffffffffffffff1673ffffffffffffffffffffffffffffffffffffffff166c010000000000000000000000000281526014018273ffffffffffffffffffffffffffffffffffffffff1673ffffffffffffffffffffffffffffffffffffffff166c01000000000000000000000000028152601401925050506040518091039020836136be565b905092915050565b6000808314156130155760009050613034565b818302905081838281151561302657fe5b0414151561303057fe5b8090505b92915050565b6130b7826000836040518082805190602001908083835b6020831015156130765780518252602082019150602081019050602083039250613051565b6001836020036101000a038019825116818451168082178552505050505050905001915050908152602001604051809103902061372e90919063ffffffff16565b7fbfec83d64eaa953f2708271a023ab9ee82057f8f3578d548c1a4ba0b5b7004898282604051808373ffffffffffffffffffffffffffffffffffffffff1673ffffffffffffffffffffffffffffffffffffffff16815260200180602001828103825283818151815260200191508051906020019080838360005b8381101561314c578082015181840152602081019050613131565b50505050905090810190601f1680156131795780820380516001836020036101000a031916815260200191505b50935050505060405180910390a15050565b6000806000806000806002600a60146101000a81548160ff021916908360038111156131b357fe5b0217905550601060009054906101000a900473ffffffffffffffffffffffffffffffffffffffff1673ffffffffffffffffffffffffffffffffffffffff1663df974adb306040518263ffffffff167c0100000000000000000000000000000000000000000000000000000000028152600401808273ffffffffffffffffffffffffffffffffffffffff1673ffffffffffffffffffffffffffffffffffffffff168152602001915050600060405180830381600087803b15801561327557600080fd5b505af1158015613289573d6000803e3d6000fd5b505050506005600060028110151561329d57fe5b01549550600560016002811015156132b157fe5b015494506132f1856132e3883073ffffffffffffffffffffffffffffffffffffffff163161300290919063ffffffff16565b61378c90919063ffffffff16565b9350600960009054906101000a900473ffffffffffffffffffffffffffffffffffffffff1673ffffffffffffffffffffffffffffffffffffffff166108fc859081150290604051600060405180830381858888f1935050505015801561335b573d6000803e3d6000fd5b506003600060028110151561336c57fe5b015492506003600160028110151561338057fe5b015491506133c0826133b2853073ffffffffffffffffffffffffffffffffffffffff163161300290919063ffffffff16565b61378c90919063ffffffff16565b9050600760009054906101000a900460ff16156134ce57600860009054906101000a900473ffffffffffffffffffffffffffffffffffffffff1673ffffffffffffffffffffffffffffffffffffffff166108fc829081150290604051600060405180830381858888f1935050505015801561343f573d6000803e3d6000fd5b503073ffffffffffffffffffffffffffffffffffffffff1631600281905550600760019054906101000a900473ffffffffffffffffffffffffffffffffffffffff1673ffffffffffffffffffffffffffffffffffffffff166108fc6002549081150290604051600060405180830381858888f193505050501580156134c8573d6000803e3d6000fd5b50613658565b6134f8813073ffffffffffffffffffffffffffffffffffffffff1631612f2690919063ffffffff16565b60028190555061357281600d6000600860009054906101000a900473ffffffffffffffffffffffffffffffffffffffff1673ffffffffffffffffffffffffffffffffffffffff1673ffffffffffffffffffffffffffffffffffffffff16815260200190815260200160002054612f2690919063ffffffff16565b600d6000600860009054906101000a900473ffffffffffffffffffffffffffffffffffffffff1673ffffffffffffffffffffffffffffffffffffffff1673ffffffffffffffffffffffffffffffffffffffff16815260200190815260200160002081905550600760019054906101000a900473ffffffffffffffffffffffffffffffffffffffff1673ffffffffffffffffffffffffffffffffffffffff166108fc3073ffffffffffffffffffffffffffffffffffffffff16319081150290604051600060405180830381858888f19350505050158015613656573d6000803e3d6000fd5b505b505050505050565b60008260000160008373ffffffffffffffffffffffffffffffffffffffff1673ffffffffffffffffffffffffffffffffffffffff16815260200190815260200160002060006101000a81548160ff0219169083151502179055505050565b6000806136e4836136d286600019166137a2565b600019166137f190919063ffffffff16565b9050613725816040805190810160405280600781526020017f626f756e63657200000000000000000000000000000000000000000000000000815250611189565b91505092915050565b60018260000160008373ffffffffffffffffffffffffffffffffffffffff1673ffffffffffffffffffffffffffffffffffffffff16815260200190815260200160002060006101000a81548160ff0219169083151502179055505050565b6000818381151561379957fe5b04905092915050565b60008160405180807f19457468657265756d205369676e6564204d6573736167653a0a333200000000815250601c01826000191660001916815260200191505060405180910390209050919050565b6000806000806041855114151561380b57600093506138e0565b6020850151925060408501519150606085015160001a9050601b8160ff16101561383657601b810190505b601b8160ff161415801561384e5750601c8160ff1614155b1561385c57600093506138e0565b600186828585604051600081526020016040526040518085600019166000191681526020018460ff1660ff1681526020018360001916600019168152602001826000191660001916815260200194505050505060206040516020810390808403906000865af11580156138d3573d6000803e3d6000fd5b5050506020604051035193505b505050929150505600a165627a7a72305820d8c06172e5aaf415d9ea7038d547d758a233c91d5f4e56db1ce56109bbc28a410029a165627a7a723058208ec21b6a3196c26737bd68d33cb7d624975573bc4ba96f82c864e13319d1968e0029",
  "source": "pragma solidity 0.4.23;\n\nimport \"./Poolbase.sol\";\n\ncontract Factory {\n\n    /*\n     *  Events\n     */\n    event ContractInstantiation(address sender, address instantiation);\n\n    /*\n     *  Storage\n     */\n    mapping(address => bool) public isInstantiation;\n    mapping(address => address[]) public instantiations;\n\n    /*\n     * Public functions\n     */\n    /// @dev Returns number of instantiations by creator.\n    /// @param creator Contract creator.\n    /// @return Returns number of instantiations by creator.\n    function getInstantiationCount(address creator)\n        public\n        constant\n        returns (uint256)\n    {\n        return instantiations[creator].length;\n    }\n\n    /*\n     * Internal functions\n     */\n    /// @dev Registers contract in factory registry.\n    /// @param instantiation Address of contract instantiation.\n    function register(address instantiation)\n        internal\n    {\n        isInstantiation[instantiation] = true;\n        instantiations[msg.sender].push(instantiation);\n        emit ContractInstantiation(msg.sender, instantiation);\n    }\n}\n\n\n/// @title Poobase factory - Allows creation of pools.\ncontract PoolbaseFactory is Factory {\n\n    /*\n     * Public functions\n     */\n\n    /* @dev Allows verified creation of pools.\n    * @param _superBouncers List of super admin previlege addresses. They belong to Poolbase.io\n    * @param _maxAllocation Pool cap in wei\n    * @param _adminPoolFee Percentage from the pool that goes to master admin pool\n    * @param _poolbaseFee Percentage from the pool that goes to Poolbase\n    * @param _isAdminFeeInWei Check on whether master admin pool fee is paid out in Ether.\n    * @param _payoutwallet Address where funds collected will be sent to at the end\n    * @param _adminPayoutWallet Address where admin fees goes to\n    * @param _poolbasePayoutWallet Address where poolbase fees goes to\n    * @param _eventEmitterContract Address of event emitter contract\n    * If not then it is paid out in ERC20 tokens\n    * @param _admins List of pool admin addresses.\n    */\n    function create\n    (\n        address[] _superBouncers,\n        uint256 _maxAllocation,\n        uint256[2] _adminPoolFee,\n        uint256[2] _poolbaseFee,\n        bool _isAdminFeeInWei,\n        address _payoutWallet,\n        address _adminPayoutWallet,\n        address _poolbasePayoutWallet,\n        address _eventEmitterContract,\n        address[] _admins\n    )\n        public\n        returns (address pool)\n    {\n        pool = new Poolbase(\n            _superBouncers,\n            _maxAllocation,\n            _adminPoolFee,\n            _poolbaseFee,\n            _isAdminFeeInWei,\n            _payoutWallet,\n            _adminPayoutWallet,\n            _poolbasePayoutWallet,\n            _eventEmitterContract,\n            _admins\n        );\n        register(pool);\n    }\n}\n",
  "sourcePath": "/Users/michaelteixeira/Documents/Development/Poolbase/poolbase-smart-contract/contracts/PoolbaseFactory.sol",
  "compiler": {
    "name": "solc",
    "version": "0.4.23+commit.124ca40d.Emscripten.clang"
  },
  "schemaVersion": "2.0.0",
  "updatedAt": "2018-07-08T02:16:19.643Z"
}