{
  "contractName": "PoolbaseFactory",
  "abi": [
    {
      "constant": true,
      "inputs": [
        {
          "name": "",
          "type": "address"
        }
      ],
      "name": "isInstantiation",
      "outputs": [
        {
          "name": "",
          "type": "bool"
        }
      ],
      "payable": false,
      "stateMutability": "view",
      "type": "function"
    },
    {
      "constant": true,
      "inputs": [
        {
          "name": "",
          "type": "address"
        },
        {
          "name": "",
          "type": "uint256"
        }
      ],
      "name": "instantiations",
      "outputs": [
        {
          "name": "",
          "type": "address"
        }
      ],
      "payable": false,
      "stateMutability": "view",
      "type": "function"
    },
    {
      "constant": true,
      "inputs": [
        {
          "name": "creator",
          "type": "address"
        }
      ],
      "name": "getInstantiationCount",
      "outputs": [
        {
          "name": "",
          "type": "uint256"
        }
      ],
      "payable": false,
      "stateMutability": "view",
      "type": "function"
    },
    {
      "anonymous": false,
      "inputs": [
        {
          "indexed": false,
          "name": "sender",
          "type": "address"
        },
        {
          "indexed": false,
          "name": "instantiation",
          "type": "address"
        }
      ],
      "name": "ContractInstantiation",
      "type": "event"
    },
    {
      "constant": false,
      "inputs": [
        {
          "name": "_superBouncers",
          "type": "address[]"
        },
        {
          "name": "_maxAllocation",
          "type": "uint256"
        },
        {
          "name": "_adminPoolFee",
          "type": "uint256[2]"
        },
        {
          "name": "_poolbaseFee",
          "type": "uint256[2]"
        },
        {
          "name": "_isAdminFeeInWei",
          "type": "bool"
        },
        {
          "name": "_payoutWallet",
          "type": "address"
        },
        {
          "name": "_adminPayoutWallet",
          "type": "address"
        },
        {
          "name": "_poolbasePayoutWallet",
          "type": "address"
        },
        {
          "name": "_eventEmitterContract",
          "type": "address"
        },
        {
          "name": "_admins",
          "type": "address[]"
        }
      ],
      "name": "create",
      "outputs": [
        {
          "name": "pool",
          "type": "address"
        }
      ],
      "payable": false,
      "stateMutability": "nonpayable",
      "type": "function"
    }
  ],
  "bytecode": "0x608060405234801561001057600080fd5b50613eec806100206000396000f300608060405260043610610062576000357c0100000000000000000000000000000000000000000000000000000000900463ffffffff1680632f4f33161461006757806357183c82146100c25780636acf4c211461014f5780638f8384781461032c575b600080fd5b34801561007357600080fd5b506100a8600480360381019080803573ffffffffffffffffffffffffffffffffffffffff169060200190929190505050610383565b604051808215151515815260200191505060405180910390f35b3480156100ce57600080fd5b5061010d600480360381019080803573ffffffffffffffffffffffffffffffffffffffff169060200190929190803590602001909291905050506103a3565b604051808273ffffffffffffffffffffffffffffffffffffffff1673ffffffffffffffffffffffffffffffffffffffff16815260200191505060405180910390f35b34801561015b57600080fd5b506102ea600480360381019080803590602001908201803590602001908080602002602001604051908101604052809392919081815260200183836020028082843782019150505050505091929192908035906020019092919080604001906002806020026040519081016040528092919082600260200280828437820191505050505091929192908060400190600280602002604051908101604052809291908260026020028082843782019150505050509192919290803515159060200190929190803573ffffffffffffffffffffffffffffffffffffffff169060200190929190803573ffffffffffffffffffffffffffffffffffffffff169060200190929190803573ffffffffffffffffffffffffffffffffffffffff169060200190929190803573ffffffffffffffffffffffffffffffffffffffff169060200190929190803590602001908201803590602001908080602002602001604051908101604052809392919081815260200183836020028082843782019150505050505091929192905050506103f0565b604051808273ffffffffffffffffffffffffffffffffffffffff1673ffffffffffffffffffffffffffffffffffffffff16815260200191505060405180910390f35b34801561033857600080fd5b5061036d600480360381019080803573ffffffffffffffffffffffffffffffffffffffff169060200190929190505050610609565b6040518082815260200191505060405180910390f35b60006020528060005260406000206000915054906101000a900460ff1681565b6001602052816000526040600020818154811015156103be57fe5b906000526020600020016000915091509054906101000a900473ffffffffffffffffffffffffffffffffffffffff1681565b60008a8a8a8a8a8a8a8a8a8a6104046107e9565b80806020018b81526020018a600260200280838360005b8381101561043657808201518184015260208101905061041b565b5050505090500189600260200280838360005b83811015610464578082015181840152602081019050610449565b50505050905001881515151581526020018773ffffffffffffffffffffffffffffffffffffffff1673ffffffffffffffffffffffffffffffffffffffff1681526020018673ffffffffffffffffffffffffffffffffffffffff1673ffffffffffffffffffffffffffffffffffffffff1681526020018573ffffffffffffffffffffffffffffffffffffffff1673ffffffffffffffffffffffffffffffffffffffff1681526020018473ffffffffffffffffffffffffffffffffffffffff1673ffffffffffffffffffffffffffffffffffffffff1681526020018060200183810383528d818151815260200191508051906020019060200280838360005b8381101561057c578082015181840152602081019050610561565b50505050905001838103825284818151815260200191508051906020019060200280838360005b838110156105be5780820151818401526020810190506105a3565b505050509050019c50505050505050505050505050604051809103906000f0801580156105ef573d6000803e3d6000fd5b5090506105fb81610655565b9a9950505050505050505050565b6000600160008373ffffffffffffffffffffffffffffffffffffffff1673ffffffffffffffffffffffffffffffffffffffff168152602001908152602001600020805490509050919050565b60016000808373ffffffffffffffffffffffffffffffffffffffff1673ffffffffffffffffffffffffffffffffffffffff16815260200190815260200160002060006101000a81548160ff021916908315150217905550600160003373ffffffffffffffffffffffffffffffffffffffff1673ffffffffffffffffffffffffffffffffffffffff1681526020019081526020016000208190806001815401808255809150509060018203906000526020600020016000909192909190916101000a81548173ffffffffffffffffffffffffffffffffffffffff021916908373ffffffffffffffffffffffffffffffffffffffff160217905550507f4fb057ad4a26ed17a57957fa69c306f11987596069b89521c511fc9a894e61613382604051808373ffffffffffffffffffffffffffffffffffffffff1673ffffffffffffffffffffffffffffffffffffffff1681526020018273ffffffffffffffffffffffffffffffffffffffff1673ffffffffffffffffffffffffffffffffffffffff1681526020019250505060405180910390a150565b6040516136c7806107fa83390190560060806040526000600860146101000a81548160ff0219169083151502179055503480156200002c57600080fd5b50604051620036c7380380620036c7833981018060405281019080805182019291906020018051906020019092919091908260400191908260400180519060200190929190805190602001909291908051906020019092919080519060200190929190805190602001909291908051820192919050505060008a60008090505b81518160ff161015620001325762000124828260ff16815181101515620000cf57fe5b906020019060200201516040805190810160405280600781526020017f626f756e6365720000000000000000000000000000000000000000000000000081525062000342640100000000026401000000009004565b8080600101915050620000ac565b5050896001819055508860029060026200014e92919062000506565b508760049060026200016292919062000506565b5086600660006101000a81548160ff02191690831515021790555085600660016101000a81548173ffffffffffffffffffffffffffffffffffffffff021916908373ffffffffffffffffffffffffffffffffffffffff16021790555084600760006101000a81548173ffffffffffffffffffffffffffffffffffffffff021916908373ffffffffffffffffffffffffffffffffffffffff16021790555083600860006101000a81548173ffffffffffffffffffffffffffffffffffffffff021916908373ffffffffffffffffffffffffffffffffffffffff16021790555082600b60006101000a81548173ffffffffffffffffffffffffffffffffffffffff021916908373ffffffffffffffffffffffffffffffffffffffff160217905550600090505b81518160ff1610156200030c57620002fe828260ff16815181101515620002a957fe5b906020019060200201516040805190810160405280600581526020017f61646d696e00000000000000000000000000000000000000000000000000000081525062000342640100000000026401000000009004565b808060010191505062000286565b6000600860156101000a81548160ff021916908360038111156200032c57fe5b0217905550505050505050505050505062000573565b620003d1826000836040518082805190602001908083835b6020831015156200038157805182526020820191506020810190506020830392506200035a565b6001836020036101000a0380198251168184511680821785525050505050509050019150509081526020016040518091039020620004a86401000000000262002f73179091906401000000009004565b7fbfec83d64eaa953f2708271a023ab9ee82057f8f3578d548c1a4ba0b5b7004898282604051808373ffffffffffffffffffffffffffffffffffffffff1673ffffffffffffffffffffffffffffffffffffffff16815260200180602001828103825283818151815260200191508051906020019080838360005b83811015620004685780820151818401526020810190506200044b565b50505050905090810190601f168015620004965780820380516001836020036101000a031916815260200191505b50935050505060405180910390a15050565b60018260000160008373ffffffffffffffffffffffffffffffffffffffff1673ffffffffffffffffffffffffffffffffffffffff16815260200190815260200160002060006101000a81548160ff0219169083151502179055505050565b826002810192821562000538579160200282015b82811115620005375782518255916020019190600101906200051a565b5b5090506200054791906200054b565b5090565b6200057091905b808211156200056c57600081600090555060010162000552565b5090565b90565b61314480620005836000396000f3006080604052600436106101a1576000357c0100000000000000000000000000000000000000000000000000000000900463ffffffff16806307db249f146101a65780630988ca8c146101e95780631479290e146102725780631b5e8906146102b5578063217fe6c61461030c5780633f4ba83a146103ad57806344773491146103c45780635c975abb1461041157806368d587a6146104405780636f9d980f146104c9578063743fd5f3146104f6578063791265c7146105255780638456cb59146105685780638488bb4e1461057f578063888764c8146105d6578063894f3202146106195780638c52dc41146106465780638f51b0f81461065d5780639b3ba79f1461068a5780639e5257c1146106b55780639ff78c30146106f6578063a28459731461074d578063b7cc20bf14610800578063bd6ad3c714610877578063c19d93fb146108b8578063c401d66c146108f1578063c614b0be14610908578063cb13cddb1461095f578063cf2c52cb146109b6578063cf554e9214610a32578063d391014b14610a5f578063d466ab6b14610aef578063fdaa9aec14610b7f575b600080fd5b3480156101b257600080fd5b506101e7600480360381019080803573ffffffffffffffffffffffffffffffffffffffff169060200190929190505050610bc2565b005b3480156101f557600080fd5b50610270600480360381019080803573ffffffffffffffffffffffffffffffffffffffff169060200190929190803590602001908201803590602001908080601f0160208091040260200160405190810160405280939291908181526020018383808284378201915050505050509192919290505050610c89565b005b34801561027e57600080fd5b506102b3600480360381019080803573ffffffffffffffffffffffffffffffffffffffff169060200190929190505050610d0a565b005b3480156102c157600080fd5b506102ca610dc9565b604051808273ffffffffffffffffffffffffffffffffffffffff1673ffffffffffffffffffffffffffffffffffffffff16815260200191505060405180910390f35b34801561031857600080fd5b50610393600480360381019080803573ffffffffffffffffffffffffffffffffffffffff169060200190929190803590602001908201803590602001908080601f0160208091040260200160405190810160405280939291908181526020018383808284378201915050505050509192919290505050610def565b604051808215151515815260200191505060405180910390f35b3480156103b957600080fd5b506103c2610e76565b005b3480156103d057600080fd5b5061040f600480360381019080803573ffffffffffffffffffffffffffffffffffffffff16906020019092919080359060200190929190505050610fc4565b005b34801561041d57600080fd5b5061042661111a565b604051808215151515815260200191505060405180910390f35b34801561044c57600080fd5b506104c7600480360381019080803573ffffffffffffffffffffffffffffffffffffffff169060200190929190803590602001908201803590602001908080601f016020809104026020016040519081016040528093929190818152602001838380828437820191505050505050919291929050505061112d565b005b3480156104d557600080fd5b506104f4600480360381019080803590602001909291905050506113aa565b005b34801561050257600080fd5b5061050b611421565b604051808215151515815260200191505060405180910390f35b34801561053157600080fd5b50610566600480360381019080803573ffffffffffffffffffffffffffffffffffffffff169060200190929190505050611434565b005b34801561057457600080fd5b5061057d611831565b005b34801561058b57600080fd5b50610594611980565b604051808273ffffffffffffffffffffffffffffffffffffffff1673ffffffffffffffffffffffffffffffffffffffff16815260200191505060405180910390f35b3480156105e257600080fd5b50610617600480360381019080803573ffffffffffffffffffffffffffffffffffffffff1690602001909291905050506119a6565b005b34801561062557600080fd5b5061064460048036038101908080359060200190929190505050611a65565b005b34801561065257600080fd5b5061065b611b22565b005b34801561066957600080fd5b5061068860048036038101908080604001909192919290505050611cae565b005b34801561069657600080fd5b5061069f611da3565b6040518082815260200191505060405180910390f35b3480156106c157600080fd5b506106e060048036038101908080359060200190929190505050611da9565b6040518082815260200191505060405180910390f35b34801561070257600080fd5b5061070b611dc3565b604051808273ffffffffffffffffffffffffffffffffffffffff1673ffffffffffffffffffffffffffffffffffffffff16815260200191505060405180910390f35b34801561075957600080fd5b506107fe600480360381019080803573ffffffffffffffffffffffffffffffffffffffff16906020019092919080359060200190929190803573ffffffffffffffffffffffffffffffffffffffff169060200190929190803590602001908201803590602001908080601f0160208091040260200160405190810160405280939291908181526020018383808284378201915050505050509192919290505050611de9565b005b34801561080c57600080fd5b50610861600480360381019080803573ffffffffffffffffffffffffffffffffffffffff169060200190929190803573ffffffffffffffffffffffffffffffffffffffff169060200190929190505050612273565b6040518082815260200191505060405180910390f35b34801561088357600080fd5b506108a260048036038101908080359060200190929190505050612298565b6040518082815260200191505060405180910390f35b3480156108c457600080fd5b506108cd6122b2565b604051808260038111156108dd57fe5b60ff16815260200191505060405180910390f35b3480156108fd57600080fd5b506109066122c5565b005b34801561091457600080fd5b5061091d612360565b604051808273ffffffffffffffffffffffffffffffffffffffff1673ffffffffffffffffffffffffffffffffffffffff16815260200191505060405180910390f35b34801561096b57600080fd5b506109a0600480360381019080803573ffffffffffffffffffffffffffffffffffffffff169060200190929190505050612386565b6040518082815260200191505060405180910390f35b610a30600480360381019080803573ffffffffffffffffffffffffffffffffffffffff169060200190929190803590602001908201803590602001908080601f016020809104026020016040519081016040528093929190818152602001838380828437820191505050505050919291929050505061239e565b005b348015610a3e57600080fd5b50610a5d60048036038101908080604001909192919290505050612514565b005b348015610a6b57600080fd5b50610a74612609565b6040518080602001828103825283818151815260200191508051906020019080838360005b83811015610ab4578082015181840152602081019050610a99565b50505050905090810190601f168015610ae15780820380516001836020036101000a031916815260200191505b509250505060405180910390f35b348015610afb57600080fd5b50610b04612642565b6040518080602001828103825283818151815260200191508051906020019080838360005b83811015610b44578082015181840152602081019050610b29565b50505050905090810190601f168015610b715780820380516001836020036101000a031916815260200191505b509250505060405180910390f35b348015610b8b57600080fd5b50610bc0600480360381019080803573ffffffffffffffffffffffffffffffffffffffff16906020019092919050505061267b565b005b6040805190810160405280600581526020017f61646d696e000000000000000000000000000000000000000000000000000000815250610c023382610c89565b600860149054906101000a900460ff16151515610c1e57600080fd5b60008273ffffffffffffffffffffffffffffffffffffffff1614151515610c4457600080fd5b81600760006101000a81548173ffffffffffffffffffffffffffffffffffffffff021916908373ffffffffffffffffffffffffffffffffffffffff1602179055505050565b610d06826000836040518082805190602001908083835b602083101515610cc55780518252602082019150602081019050602083039250610ca0565b6001836020036101000a038019825116818451168082178552505050505050905001915050908152602001604051809103902061274290919063ffffffff16565b5050565b6040805190810160405280600781526020017f626f756e63657200000000000000000000000000000000000000000000000000815250610d4a3382610c89565b600073ffffffffffffffffffffffffffffffffffffffff168273ffffffffffffffffffffffffffffffffffffffff1614151515610d8657600080fd5b610dc5826040805190810160405280600781526020017f626f756e6365720000000000000000000000000000000000000000000000000081525061275b565b5050565b600760009054906101000a900473ffffffffffffffffffffffffffffffffffffffff1681565b6000610e6e836000846040518082805190602001908083835b602083101515610e2d5780518252602082019150602081019050602083039250610e08565b6001836020036101000a03801982511681845116808217855250505050505090500191505090815260200160405180910390206128ac90919063ffffffff16565b905092915050565b6040805190810160405280600781526020017f626f756e63657200000000000000000000000000000000000000000000000000815250610eb63382610c89565b600860149054906101000a900460ff161515610ed157600080fd5b6000600860146101000a81548160ff021916908315150217905550600b60009054906101000a900473ffffffffffffffffffffffffffffffffffffffff1673ffffffffffffffffffffffffffffffffffffffff16635e509216306040518263ffffffff167c0100000000000000000000000000000000000000000000000000000000028152600401808273ffffffffffffffffffffffffffffffffffffffff1673ffffffffffffffffffffffffffffffffffffffff168152602001915050600060405180830381600087803b158015610fa957600080fd5b505af1158015610fbd573d6000803e3d6000fd5b5050505050565b6040805190810160405280600781526020017f626f756e636572000000000000000000000000000000000000000000000000008152506110043382610c89565b6000821415151561101457600080fd5b8273ffffffffffffffffffffffffffffffffffffffff1663a9059cbb600860009054906101000a900473ffffffffffffffffffffffffffffffffffffffff16846040518363ffffffff167c0100000000000000000000000000000000000000000000000000000000028152600401808373ffffffffffffffffffffffffffffffffffffffff1673ffffffffffffffffffffffffffffffffffffffff16815260200182815260200192505050602060405180830381600087803b1580156110d957600080fd5b505af11580156110ed573d6000803e3d6000fd5b505050506040513d602081101561110357600080fd5b810190808051906020019092919050505050505050565b600860149054906101000a900460ff1681565b60008161113a3382612905565b151561114557600080fd5b600860149054906101000a900460ff1615151561116157600080fd5b6000600381111561116e57fe5b600860159054906101000a900460ff16600381111561118957fe5b14806111ba57506001600381111561119d57fe5b600860159054906101000a900460ff1660038111156111b857fe5b145b15156111c557600080fd5b600960008573ffffffffffffffffffffffffffffffffffffffff1673ffffffffffffffffffffffffffffffffffffffff1681526020019081526020016000205491506000600960008673ffffffffffffffffffffffffffffffffffffffff1673ffffffffffffffffffffffffffffffffffffffff168152602001908152602001600020819055508373ffffffffffffffffffffffffffffffffffffffff166108fc839081150290604051600060405180830381858888f19350505050158015611292573d6000803e3d6000fd5b50600b60009054906101000a900473ffffffffffffffffffffffffffffffffffffffff1673ffffffffffffffffffffffffffffffffffffffff16631351193c3086856040518463ffffffff167c0100000000000000000000000000000000000000000000000000000000028152600401808473ffffffffffffffffffffffffffffffffffffffff1673ffffffffffffffffffffffffffffffffffffffff1681526020018373ffffffffffffffffffffffffffffffffffffffff1673ffffffffffffffffffffffffffffffffffffffff1681526020018281526020019350505050600060405180830381600087803b15801561138c57600080fd5b505af11580156113a0573d6000803e3d6000fd5b5050505050505050565b6040805190810160405280600581526020017f61646d696e0000000000000000000000000000000000000000000000000000008152506113ea3382610c89565b600860149054906101000a900460ff1615151561140657600080fd5b6000821415151561141657600080fd5b816001819055505050565b600660009054906101000a900460ff1681565b6000806000806040805190810160405280600581526020017f61646d696e00000000000000000000000000000000000000000000000000000081525061147a3382610c89565b600860149054906101000a900460ff1615151561149657600080fd5b600260038111156114a357fe5b600860159054906101000a900460ff1660038111156114be57fe5b1415156114ca57600080fd5b6003600860156101000a81548160ff021916908360038111156114e957fe5b021790555085945060008573ffffffffffffffffffffffffffffffffffffffff166370a08231306040518263ffffffff167c0100000000000000000000000000000000000000000000000000000000028152600401808273ffffffffffffffffffffffffffffffffffffffff1673ffffffffffffffffffffffffffffffffffffffff168152602001915050602060405180830381600087803b15801561158e57600080fd5b505af11580156115a2573d6000803e3d6000fd5b505050506040513d60208110156115b857600080fd5b8101908080519060200190929190505050141515156115d657600080fd5b600660009054906101000a900460ff16151561175457600260006002811015156115fc57fe5b015493506002600160028110151561161057fe5b0154925061165083611642863073ffffffffffffffffffffffffffffffffffffffff16316129ac90919063ffffffff16565b6129e490919063ffffffff16565b91508473ffffffffffffffffffffffffffffffffffffffff1663a9059cbb600760009054906101000a900473ffffffffffffffffffffffffffffffffffffffff16846040518363ffffffff167c0100000000000000000000000000000000000000000000000000000000028152600401808373ffffffffffffffffffffffffffffffffffffffff1673ffffffffffffffffffffffffffffffffffffffff16815260200182815260200192505050602060405180830381600087803b15801561171757600080fd5b505af115801561172b573d6000803e3d6000fd5b505050506040513d602081101561174157600080fd5b8101908080519060200190929190505050505b600b60009054906101000a900473ffffffffffffffffffffffffffffffffffffffff1673ffffffffffffffffffffffffffffffffffffffff1663645ff1a2306040518263ffffffff167c0100000000000000000000000000000000000000000000000000000000028152600401808273ffffffffffffffffffffffffffffffffffffffff1673ffffffffffffffffffffffffffffffffffffffff168152602001915050600060405180830381600087803b15801561181157600080fd5b505af1158015611825573d6000803e3d6000fd5b50505050505050505050565b6040805190810160405280600781526020017f626f756e636572000000000000000000000000000000000000000000000000008152506118713382610c89565b600860149054906101000a900460ff1615151561188d57600080fd5b6001600860146101000a81548160ff021916908315150217905550600b60009054906101000a900473ffffffffffffffffffffffffffffffffffffffff1673ffffffffffffffffffffffffffffffffffffffff16632cb209e4306040518263ffffffff167c0100000000000000000000000000000000000000000000000000000000028152600401808273ffffffffffffffffffffffffffffffffffffffff1673ffffffffffffffffffffffffffffffffffffffff168152602001915050600060405180830381600087803b15801561196557600080fd5b505af1158015611979573d6000803e3d6000fd5b5050505050565b600660019054906101000a900473ffffffffffffffffffffffffffffffffffffffff1681565b6040805190810160405280600781526020017f626f756e636572000000000000000000000000000000000000000000000000008152506119e63382610c89565b600073ffffffffffffffffffffffffffffffffffffffff168273ffffffffffffffffffffffffffffffffffffffff1614151515611a2257600080fd5b611a61826040805190810160405280600781526020017f626f756e636572000000000000000000000000000000000000000000000000008152506129fa565b5050565b6040805190810160405280600781526020017f626f756e63657200000000000000000000000000000000000000000000000000815250611aa53382610c89565b60008214151515611ab557600080fd5b600860009054906101000a900473ffffffffffffffffffffffffffffffffffffffff1673ffffffffffffffffffffffffffffffffffffffff166108fc839081150290604051600060405180830381858888f19350505050158015611b1d573d6000803e3d6000fd5b505050565b6040805190810160405280600581526020017f61646d696e000000000000000000000000000000000000000000000000000000815250611b623382610c89565b600860149054906101000a900460ff16151515611b7e57600080fd5b60006003811115611b8b57fe5b600860159054906101000a900460ff166003811115611ba657fe5b141515611bb257600080fd5b6001600860156101000a81548160ff02191690836003811115611bd157fe5b0217905550600b60009054906101000a900473ffffffffffffffffffffffffffffffffffffffff1673ffffffffffffffffffffffffffffffffffffffff1663186a3630306040518263ffffffff167c0100000000000000000000000000000000000000000000000000000000028152600401808273ffffffffffffffffffffffffffffffffffffffff1673ffffffffffffffffffffffffffffffffffffffff168152602001915050600060405180830381600087803b158015611c9357600080fd5b505af1158015611ca7573d6000803e3d6000fd5b5050505050565b6040805190810160405280600581526020017f61646d696e000000000000000000000000000000000000000000000000000000815250611cee3382610c89565b600860149054906101000a900460ff16151515611d0a57600080fd5b6000826000600281101515611d1b57fe5b602002013514158015611d4257506000826001600281101515611d3a57fe5b602002013514155b1515611d4d57600080fd5b816000600281101515611d5c57fe5b602002013560026000600281101515611d7157fe5b0181905550816001600281101515611d8557fe5b602002013560026001600281101515611d9a57fe5b01819055505050565b60015481565b600481600281101515611db857fe5b016000915090505481565b600b60009054906101000a900473ffffffffffffffffffffffffffffffffffffffff1681565b600081611df63382612905565b1515611e0157600080fd5b600860149054906101000a900460ff16151515611e1d57600080fd5b600380811115611e2957fe5b600860159054906101000a900460ff166003811115611e4457fe5b141515611e5057600080fd5b83915060008273ffffffffffffffffffffffffffffffffffffffff166370a08231306040518263ffffffff167c0100000000000000000000000000000000000000000000000000000000028152600401808273ffffffffffffffffffffffffffffffffffffffff1673ffffffffffffffffffffffffffffffffffffffff168152602001915050602060405180830381600087803b158015611ef057600080fd5b505af1158015611f04573d6000803e3d6000fd5b505050506040513d6020811015611f1a57600080fd5b810190808051906020019092919050505014151515611f3857600080fd5b611fc785600a60008973ffffffffffffffffffffffffffffffffffffffff1673ffffffffffffffffffffffffffffffffffffffff16815260200190815260200160002060008773ffffffffffffffffffffffffffffffffffffffff1673ffffffffffffffffffffffffffffffffffffffff16815260200190815260200160002054612b4b90919063ffffffff16565b600a60008873ffffffffffffffffffffffffffffffffffffffff1673ffffffffffffffffffffffffffffffffffffffff16815260200190815260200160002060008673ffffffffffffffffffffffffffffffffffffffff1673ffffffffffffffffffffffffffffffffffffffff168152602001908152602001600020819055508173ffffffffffffffffffffffffffffffffffffffff1663a9059cbb87876040518363ffffffff167c0100000000000000000000000000000000000000000000000000000000028152600401808373ffffffffffffffffffffffffffffffffffffffff1673ffffffffffffffffffffffffffffffffffffffff16815260200182815260200192505050602060405180830381600087803b1580156120ea57600080fd5b505af11580156120fe573d6000803e3d6000fd5b505050506040513d602081101561211457600080fd5b810190808051906020019092919050505050600b60009054906101000a900473ffffffffffffffffffffffffffffffffffffffff1673ffffffffffffffffffffffffffffffffffffffff1663f80e9499308888866040518563ffffffff167c0100000000000000000000000000000000000000000000000000000000028152600401808573ffffffffffffffffffffffffffffffffffffffff1673ffffffffffffffffffffffffffffffffffffffff1681526020018473ffffffffffffffffffffffffffffffffffffffff1673ffffffffffffffffffffffffffffffffffffffff1681526020018381526020018273ffffffffffffffffffffffffffffffffffffffff1673ffffffffffffffffffffffffffffffffffffffff168152602001945050505050600060405180830381600087803b15801561225357600080fd5b505af1158015612267573d6000803e3d6000fd5b50505050505050505050565b600a602052816000526040600020602052806000526040600020600091509150505481565b6002816002811015156122a757fe5b016000915090505481565b600860159054906101000a900460ff1681565b6040805190810160405280600581526020017f61646d696e0000000000000000000000000000000000000000000000000000008152506123053382610c89565b600860149054906101000a900460ff1615151561232157600080fd5b6000600381111561232e57fe5b600860159054906101000a900460ff16600381111561234957fe5b14151561235557600080fd5b61235d612b67565b50565b600860009054906101000a900473ffffffffffffffffffffffffffffffffffffffff1681565b60096020528060005260406000206000915090505481565b806123a93382612905565b15156123b457600080fd5b600860149054906101000a900460ff161515156123d057600080fd5b600060038111156123dd57fe5b600860159054906101000a900460ff1660038111156123f857fe5b14151561240457600080fd5b600154612431343073ffffffffffffffffffffffffffffffffffffffff1631612b4b90919063ffffffff16565b1115151561243e57600080fd5b61249034600960008673ffffffffffffffffffffffffffffffffffffffff1673ffffffffffffffffffffffffffffffffffffffff16815260200190815260200160002054612b4b90919063ffffffff16565b600960008573ffffffffffffffffffffffffffffffffffffffff1673ffffffffffffffffffffffffffffffffffffffff16815260200190815260200160002081905550600154612500343073ffffffffffffffffffffffffffffffffffffffff1631612b4b90919063ffffffff16565b141561250f5761250e612b67565b5b505050565b6040805190810160405280600781526020017f626f756e636572000000000000000000000000000000000000000000000000008152506125543382610c89565b600860149054906101000a900460ff1615151561257057600080fd5b600082600060028110151561258157fe5b6020020135141580156125a8575060008260016002811015156125a057fe5b602002013514155b15156125b357600080fd5b8160006002811015156125c257fe5b6020020135600460006002811015156125d757fe5b01819055508160016002811015156125eb57fe5b60200201356004600160028110151561260057fe5b01819055505050565b6040805190810160405280600581526020017f61646d696e00000000000000000000000000000000000000000000000000000081525081565b6040805190810160405280600781526020017f626f756e6365720000000000000000000000000000000000000000000000000081525081565b6040805190810160405280600781526020017f626f756e636572000000000000000000000000000000000000000000000000008152506126bb3382610c89565b600860149054906101000a900460ff161515156126d757600080fd5b60008273ffffffffffffffffffffffffffffffffffffffff16141515156126fd57600080fd5b81600860006101000a81548173ffffffffffffffffffffffffffffffffffffffff021916908373ffffffffffffffffffffffffffffffffffffffff1602179055505050565b61274c82826128ac565b151561275757600080fd5b5050565b6127d8826000836040518082805190602001908083835b6020831015156127975780518252602082019150602081019050602083039250612772565b6001836020036101000a0380198251168184511680821785525050505050509050019150509081526020016040518091039020612ea590919063ffffffff16565b7fd211483f91fc6eff862467f8de606587a30c8fc9981056f051b897a418df803a8282604051808373ffffffffffffffffffffffffffffffffffffffff1673ffffffffffffffffffffffffffffffffffffffff16815260200180602001828103825283818151815260200191508051906020019080838360005b8381101561286d578082015181840152602081019050612852565b50505050905090810190601f16801561289a5780820380516001836020036101000a031916815260200191505b50935050505060405180910390a15050565b60008260000160008373ffffffffffffffffffffffffffffffffffffffff1673ffffffffffffffffffffffffffffffffffffffff16815260200190815260200160002060009054906101000a900460ff16905092915050565b60006129a43084604051808373ffffffffffffffffffffffffffffffffffffffff1673ffffffffffffffffffffffffffffffffffffffff166c010000000000000000000000000281526014018273ffffffffffffffffffffffffffffffffffffffff1673ffffffffffffffffffffffffffffffffffffffff166c0100000000000000000000000002815260140192505050604051809103902083612f03565b905092915050565b6000808314156129bf57600090506129de565b81830290508183828115156129d057fe5b041415156129da57fe5b8090505b92915050565b600081838115156129f157fe5b04905092915050565b612a77826000836040518082805190602001908083835b602083101515612a365780518252602082019150602081019050602083039250612a11565b6001836020036101000a0380198251168184511680821785525050505050509050019150509081526020016040518091039020612f7390919063ffffffff16565b7fbfec83d64eaa953f2708271a023ab9ee82057f8f3578d548c1a4ba0b5b7004898282604051808373ffffffffffffffffffffffffffffffffffffffff1673ffffffffffffffffffffffffffffffffffffffff16815260200180602001828103825283818151815260200191508051906020019080838360005b83811015612b0c578082015181840152602081019050612af1565b50505050905090810190601f168015612b395780820380516001836020036101000a031916815260200191505b50935050505060405180910390a15050565b60008183019050828110151515612b5e57fe5b80905092915050565b6000806000806000806002600860156101000a81548160ff02191690836003811115612b8f57fe5b0217905550600b60009054906101000a900473ffffffffffffffffffffffffffffffffffffffff1673ffffffffffffffffffffffffffffffffffffffff1663df974adb306040518263ffffffff167c0100000000000000000000000000000000000000000000000000000000028152600401808273ffffffffffffffffffffffffffffffffffffffff1673ffffffffffffffffffffffffffffffffffffffff168152602001915050600060405180830381600087803b158015612c5157600080fd5b505af1158015612c65573d6000803e3d6000fd5b5050505060046000600281101515612c7957fe5b0154955060046001600281101515612c8d57fe5b01549450612ccd85612cbf883073ffffffffffffffffffffffffffffffffffffffff16316129ac90919063ffffffff16565b6129e490919063ffffffff16565b9350600660009054906101000a900460ff1615612db45760026000600281101515612cf457fe5b0154925060026001600281101515612d0857fe5b01549150612d4882612d3a853073ffffffffffffffffffffffffffffffffffffffff16316129ac90919063ffffffff16565b6129e490919063ffffffff16565b9050600760009054906101000a900473ffffffffffffffffffffffffffffffffffffffff1673ffffffffffffffffffffffffffffffffffffffff166108fc829081150290604051600060405180830381858888f19350505050158015612db2573d6000803e3d6000fd5b505b600860009054906101000a900473ffffffffffffffffffffffffffffffffffffffff1673ffffffffffffffffffffffffffffffffffffffff166108fc859081150290604051600060405180830381858888f19350505050158015612e1c573d6000803e3d6000fd5b50600660019054906101000a900473ffffffffffffffffffffffffffffffffffffffff1673ffffffffffffffffffffffffffffffffffffffff166108fc3073ffffffffffffffffffffffffffffffffffffffff16319081150290604051600060405180830381858888f19350505050158015612e9c573d6000803e3d6000fd5b50505050505050565b60008260000160008373ffffffffffffffffffffffffffffffffffffffff1673ffffffffffffffffffffffffffffffffffffffff16815260200190815260200160002060006101000a81548160ff0219169083151502179055505050565b600080612f2983612f178660001916612fd1565b6000191661302090919063ffffffff16565b9050612f6a816040805190810160405280600781526020017f626f756e63657200000000000000000000000000000000000000000000000000815250610def565b91505092915050565b60018260000160008373ffffffffffffffffffffffffffffffffffffffff1673ffffffffffffffffffffffffffffffffffffffff16815260200190815260200160002060006101000a81548160ff0219169083151502179055505050565b60008160405180807f19457468657265756d205369676e6564204d6573736167653a0a333200000000815250601c01826000191660001916815260200191505060405180910390209050919050565b6000806000806041855114151561303a576000935061310f565b6020850151925060408501519150606085015160001a9050601b8160ff16101561306557601b810190505b601b8160ff161415801561307d5750601c8160ff1614155b1561308b576000935061310f565b600186828585604051600081526020016040526040518085600019166000191681526020018460ff1660ff1681526020018360001916600019168152602001826000191660001916815260200194505050505060206040516020810390808403906000865af1158015613102573d6000803e3d6000fd5b5050506020604051035193505b505050929150505600a165627a7a72305820e1b47ad5c946bca92bff7398987526642b122cf269363933d59588319077f0080029a165627a7a723058208a504e989bd45459ca3f507f807824e15fb138f098287f9baebb1758b3e905a70029",
  "source": "pragma solidity 0.4.23;\n\nimport \"./Poolbase.sol\";\n\ncontract Factory {\n\n    /*\n     *  Events\n     */\n    event ContractInstantiation(address sender, address instantiation);\n\n    /*\n     *  Storage\n     */\n    mapping(address => bool) public isInstantiation;\n    mapping(address => address[]) public instantiations;\n\n    /*\n     * Public functions\n     */\n    /// @dev Returns number of instantiations by creator.\n    /// @param creator Contract creator.\n    /// @return Returns number of instantiations by creator.\n    function getInstantiationCount(address creator)\n        public\n        constant\n        returns (uint256)\n    {\n        return instantiations[creator].length;\n    }\n\n    /*\n     * Internal functions\n     */\n    /// @dev Registers contract in factory registry.\n    /// @param instantiation Address of contract instantiation.\n    function register(address instantiation)\n        internal\n    {\n        isInstantiation[instantiation] = true;\n        instantiations[msg.sender].push(instantiation);\n        emit ContractInstantiation(msg.sender, instantiation);\n    }\n}\n\n\n/// @title Poobase factory - Allows creation of pools.\ncontract PoolbaseFactory is Factory {\n\n    /*\n     * Public functions\n     */\n\n    /* @dev Allows verified creation of pools.\n    * @param _superBouncers List of super admin previlege addresses. They belong to Poolbase.io\n    * @param _maxAllocation Pool cap in wei\n    * @param _adminPoolFee Percentage from the pool that goes to master admin pool\n    * @param _poolbaseFee Percentage from the pool that goes to Poolbase\n    * @param _isAdminFeeInWei Check on whether master admin pool fee is paid out in Ether.\n    * @param _payoutwallet Address where funds collected will be sent to at the end\n    * @param _adminPayoutWallet Address where admin fees goes to\n    * @param _poolbasePayoutWallet Address where poolbase fees goes to\n    * @param _eventEmitterContract Address of event emitter contract\n    * If not then it is paid out in ERC20 tokens\n    * @param _admins List of pool admin addresses.\n    */\n    function create\n    (\n        address[] _superBouncers,\n        uint256 _maxAllocation,\n        uint256[2] _adminPoolFee,\n        uint256[2] _poolbaseFee,\n        bool _isAdminFeeInWei,\n        address _payoutWallet,\n        address _adminPayoutWallet,\n        address _poolbasePayoutWallet,\n        address _eventEmitterContract,\n        address[] _admins\n    )\n        public\n        returns (address pool)\n    {\n        pool = new Poolbase(\n            _superBouncers,\n            _maxAllocation,\n            _adminPoolFee,\n            _poolbaseFee,\n            _isAdminFeeInWei,\n            _payoutWallet,\n            _adminPayoutWallet,\n            _poolbasePayoutWallet,\n            _eventEmitterContract,\n            _admins\n        );\n        register(pool);\n    }\n}\n",
  "sourcePath": "/Users/michaelteixeira/Documents/Development/Poolbase/felix-contract/contracts/PoolbaseFactory.sol",
  "compiler": {
    "name": "solc",
    "version": "0.4.23+commit.124ca40d.Emscripten.clang"
  },
  "schemaVersion": "2.0.0",
  "updatedAt": "2018-07-01T21:40:31.502Z"
}